{
  "_format": "hh-sol-artifact-1",
  "contractName": "OmnichainCredit",
  "sourceName": "contracts/OmnichainCredit.sol",
  "abi": [
    {
      "inputs": [
        {
          "internalType": "address",
          "name": "_lzEndpoint",
          "type": "address"
        }
      ],
      "stateMutability": "nonpayable",
      "type": "constructor"
    },
    {
      "anonymous": false,
      "inputs": [
        {
          "indexed": false,
          "internalType": "uint16",
          "name": "_srcChainId",
          "type": "uint16"
        },
        {
          "indexed": false,
          "internalType": "bytes",
          "name": "_srcAddress",
          "type": "bytes"
        },
        {
          "indexed": false,
          "internalType": "uint64",
          "name": "_nonce",
          "type": "uint64"
        },
        {
          "indexed": false,
          "internalType": "bytes",
          "name": "_payload",
          "type": "bytes"
        },
        {
          "indexed": false,
          "internalType": "bytes",
          "name": "_reason",
          "type": "bytes"
        }
      ],
      "name": "MessageFailed",
      "type": "event"
    },
    {
      "anonymous": false,
      "inputs": [
        {
          "indexed": true,
          "internalType": "address",
          "name": "previousOwner",
          "type": "address"
        },
        {
          "indexed": true,
          "internalType": "address",
          "name": "newOwner",
          "type": "address"
        }
      ],
      "name": "OwnershipTransferred",
      "type": "event"
    },
    {
      "anonymous": false,
      "inputs": [
        {
          "indexed": false,
          "internalType": "uint16",
          "name": "_srcChainId",
          "type": "uint16"
        },
        {
          "indexed": false,
          "internalType": "bytes",
          "name": "_srcAddress",
          "type": "bytes"
        },
        {
          "indexed": false,
          "internalType": "uint64",
          "name": "_nonce",
          "type": "uint64"
        },
        {
          "indexed": false,
          "internalType": "bytes32",
          "name": "_payloadHash",
          "type": "bytes32"
        }
      ],
      "name": "RetryMessageSuccess",
      "type": "event"
    },
    {
      "anonymous": false,
      "inputs": [
        {
          "indexed": false,
          "internalType": "uint16",
          "name": "_dstChainId",
          "type": "uint16"
        },
        {
          "indexed": false,
          "internalType": "uint16",
          "name": "_type",
          "type": "uint16"
        },
        {
          "indexed": false,
          "internalType": "uint256",
          "name": "_minDstGas",
          "type": "uint256"
        }
      ],
      "name": "SetMinDstGas",
      "type": "event"
    },
    {
      "anonymous": false,
      "inputs": [
        {
          "indexed": false,
          "internalType": "address",
          "name": "precrime",
          "type": "address"
        }
      ],
      "name": "SetPrecrime",
      "type": "event"
    },
    {
      "anonymous": false,
      "inputs": [
        {
          "indexed": false,
          "internalType": "uint16",
          "name": "_remoteChainId",
          "type": "uint16"
        },
        {
          "indexed": false,
          "internalType": "bytes",
          "name": "_path",
          "type": "bytes"
        }
      ],
      "name": "SetTrustedRemote",
      "type": "event"
    },
    {
      "anonymous": false,
      "inputs": [
        {
          "indexed": false,
          "internalType": "uint16",
          "name": "_remoteChainId",
          "type": "uint16"
        },
        {
          "indexed": false,
          "internalType": "bytes",
          "name": "_remoteAddress",
          "type": "bytes"
        }
      ],
      "name": "SetTrustedRemoteAddress",
      "type": "event"
    },
    {
      "inputs": [],
      "name": "DEFAULT_PAYLOAD_SIZE_LIMIT",
      "outputs": [
        {
          "internalType": "uint256",
          "name": "",
          "type": "uint256"
        }
      ],
      "stateMutability": "view",
      "type": "function"
    },
    {
      "inputs": [
        {
          "internalType": "address",
          "name": "",
          "type": "address"
        }
      ],
      "name": "credit",
      "outputs": [
        {
          "internalType": "uint16",
          "name": "",
          "type": "uint16"
        }
      ],
      "stateMutability": "view",
      "type": "function"
    },
    {
      "inputs": [
        {
          "internalType": "uint16",
          "name": "",
          "type": "uint16"
        },
        {
          "internalType": "bytes",
          "name": "",
          "type": "bytes"
        },
        {
          "internalType": "uint64",
          "name": "",
          "type": "uint64"
        }
      ],
      "name": "failedMessages",
      "outputs": [
        {
          "internalType": "bytes32",
          "name": "",
          "type": "bytes32"
        }
      ],
      "stateMutability": "view",
      "type": "function"
    },
    {
      "inputs": [
        {
          "internalType": "uint16",
          "name": "_srcChainId",
          "type": "uint16"
        },
        {
          "internalType": "bytes",
          "name": "_srcAddress",
          "type": "bytes"
        }
      ],
      "name": "forceResumeReceive",
      "outputs": [],
      "stateMutability": "nonpayable",
      "type": "function"
    },
    {
      "inputs": [
        {
          "internalType": "uint16",
          "name": "_version",
          "type": "uint16"
        },
        {
          "internalType": "uint16",
          "name": "_chainId",
          "type": "uint16"
        },
        {
          "internalType": "address",
          "name": "",
          "type": "address"
        },
        {
          "internalType": "uint256",
          "name": "_configType",
          "type": "uint256"
        }
      ],
      "name": "getConfig",
      "outputs": [
        {
          "internalType": "bytes",
          "name": "",
          "type": "bytes"
        }
      ],
      "stateMutability": "view",
      "type": "function"
    },
    {
      "inputs": [
        {
          "internalType": "uint16",
          "name": "_remoteChainId",
          "type": "uint16"
        }
      ],
      "name": "getTrustedRemoteAddress",
      "outputs": [
        {
          "internalType": "bytes",
          "name": "",
          "type": "bytes"
        }
      ],
      "stateMutability": "view",
      "type": "function"
    },
    {
      "inputs": [
        {
          "internalType": "address",
          "name": "",
          "type": "address"
        }
      ],
      "name": "isNotFirstTime",
      "outputs": [
        {
          "internalType": "bool",
          "name": "",
          "type": "bool"
        }
      ],
      "stateMutability": "view",
      "type": "function"
    },
    {
      "inputs": [
        {
          "internalType": "uint16",
          "name": "_srcChainId",
          "type": "uint16"
        },
        {
          "internalType": "bytes",
          "name": "_srcAddress",
          "type": "bytes"
        }
      ],
      "name": "isTrustedRemote",
      "outputs": [
        {
          "internalType": "bool",
          "name": "",
          "type": "bool"
        }
      ],
      "stateMutability": "view",
      "type": "function"
    },
    {
      "inputs": [],
      "name": "lzEndpoint",
      "outputs": [
        {
          "internalType": "contract ILayerZeroEndpoint",
          "name": "",
          "type": "address"
        }
      ],
      "stateMutability": "view",
      "type": "function"
    },
    {
      "inputs": [
        {
          "internalType": "uint16",
          "name": "_srcChainId",
          "type": "uint16"
        },
        {
          "internalType": "bytes",
          "name": "_srcAddress",
          "type": "bytes"
        },
        {
          "internalType": "uint64",
          "name": "_nonce",
          "type": "uint64"
        },
        {
          "internalType": "bytes",
          "name": "_payload",
          "type": "bytes"
        }
      ],
      "name": "lzReceive",
      "outputs": [],
      "stateMutability": "nonpayable",
      "type": "function"
    },
    {
      "inputs": [
        {
          "internalType": "uint16",
          "name": "",
          "type": "uint16"
        },
        {
          "internalType": "uint16",
          "name": "",
          "type": "uint16"
        }
      ],
      "name": "minDstGasLookup",
      "outputs": [
        {
          "internalType": "uint256",
          "name": "",
          "type": "uint256"
        }
      ],
      "stateMutability": "view",
      "type": "function"
    },
    {
      "inputs": [
        {
          "internalType": "uint16",
          "name": "_srcChainId",
          "type": "uint16"
        },
        {
          "internalType": "bytes",
          "name": "_srcAddress",
          "type": "bytes"
        },
        {
          "internalType": "uint64",
          "name": "_nonce",
          "type": "uint64"
        },
        {
          "internalType": "bytes",
          "name": "_payload",
          "type": "bytes"
        }
      ],
      "name": "nonblockingLzReceive",
      "outputs": [],
      "stateMutability": "nonpayable",
      "type": "function"
    },
    {
      "inputs": [],
      "name": "owner",
      "outputs": [
        {
          "internalType": "address",
          "name": "",
          "type": "address"
        }
      ],
      "stateMutability": "view",
      "type": "function"
    },
    {
      "inputs": [
        {
          "internalType": "uint16",
          "name": "",
          "type": "uint16"
        }
      ],
      "name": "payloadSizeLimitLookup",
      "outputs": [
        {
          "internalType": "uint256",
          "name": "",
          "type": "uint256"
        }
      ],
      "stateMutability": "view",
      "type": "function"
    },
    {
      "inputs": [],
      "name": "precrime",
      "outputs": [
        {
          "internalType": "address",
          "name": "",
          "type": "address"
        }
      ],
      "stateMutability": "view",
      "type": "function"
    },
    {
      "inputs": [],
      "name": "renounceOwnership",
      "outputs": [],
      "stateMutability": "nonpayable",
      "type": "function"
    },
    {
      "inputs": [
        {
          "internalType": "uint16",
          "name": "_srcChainId",
          "type": "uint16"
        },
        {
          "internalType": "bytes",
          "name": "_srcAddress",
          "type": "bytes"
        },
        {
          "internalType": "uint64",
          "name": "_nonce",
          "type": "uint64"
        },
        {
          "internalType": "bytes",
          "name": "_payload",
          "type": "bytes"
        }
      ],
      "name": "retryMessage",
      "outputs": [],
      "stateMutability": "payable",
      "type": "function"
    },
    {
      "inputs": [
        {
          "internalType": "uint16",
          "name": "_version",
          "type": "uint16"
        },
        {
          "internalType": "uint16",
          "name": "_chainId",
          "type": "uint16"
        },
        {
          "internalType": "uint256",
          "name": "_configType",
          "type": "uint256"
        },
        {
          "internalType": "bytes",
          "name": "_config",
          "type": "bytes"
        }
      ],
      "name": "setConfig",
      "outputs": [],
      "stateMutability": "nonpayable",
      "type": "function"
    },
    {
      "inputs": [
        {
          "internalType": "uint16",
          "name": "_dstChainId",
          "type": "uint16"
        },
        {
          "internalType": "uint16",
          "name": "_packetType",
          "type": "uint16"
        },
        {
          "internalType": "uint256",
          "name": "_minGas",
          "type": "uint256"
        }
      ],
      "name": "setMinDstGas",
      "outputs": [],
      "stateMutability": "nonpayable",
      "type": "function"
    },
    {
      "inputs": [
        {
          "internalType": "uint16",
          "name": "_dstChainId",
          "type": "uint16"
        },
        {
          "internalType": "uint256",
          "name": "_size",
          "type": "uint256"
        }
      ],
      "name": "setPayloadSizeLimit",
      "outputs": [],
      "stateMutability": "nonpayable",
      "type": "function"
    },
    {
      "inputs": [
        {
          "internalType": "address",
          "name": "_precrime",
          "type": "address"
        }
      ],
      "name": "setPrecrime",
      "outputs": [],
      "stateMutability": "nonpayable",
      "type": "function"
    },
    {
      "inputs": [
        {
          "internalType": "uint16",
          "name": "_version",
          "type": "uint16"
        }
      ],
      "name": "setReceiveVersion",
      "outputs": [],
      "stateMutability": "nonpayable",
      "type": "function"
    },
    {
      "inputs": [
        {
          "internalType": "uint16",
          "name": "_version",
          "type": "uint16"
        }
      ],
      "name": "setSendVersion",
      "outputs": [],
      "stateMutability": "nonpayable",
      "type": "function"
    },
    {
      "inputs": [
        {
          "internalType": "uint16",
          "name": "_remoteChainId",
          "type": "uint16"
        },
        {
          "internalType": "bytes",
          "name": "_path",
          "type": "bytes"
        }
      ],
      "name": "setTrustedRemote",
      "outputs": [],
      "stateMutability": "nonpayable",
      "type": "function"
    },
    {
      "inputs": [
        {
          "internalType": "uint16",
          "name": "_remoteChainId",
          "type": "uint16"
        },
        {
          "internalType": "bytes",
          "name": "_remoteAddress",
          "type": "bytes"
        }
      ],
      "name": "setTrustedRemoteAddress",
      "outputs": [],
      "stateMutability": "nonpayable",
      "type": "function"
    },
    {
      "inputs": [
        {
          "internalType": "address",
          "name": "newOwner",
          "type": "address"
        }
      ],
      "name": "transferOwnership",
      "outputs": [],
      "stateMutability": "nonpayable",
      "type": "function"
    },
    {
      "inputs": [
        {
          "internalType": "uint16",
          "name": "",
          "type": "uint16"
        }
      ],
      "name": "trustedRemoteLookup",
      "outputs": [
        {
          "internalType": "bytes",
          "name": "",
          "type": "bytes"
        }
      ],
      "stateMutability": "view",
      "type": "function"
    },
    {
      "inputs": [
        {
          "internalType": "uint16",
          "name": "_dstChainId",
          "type": "uint16"
        },
        {
          "internalType": "uint16",
          "name": "_usedCredit",
          "type": "uint16"
        }
      ],
      "name": "useCredit",
      "outputs": [],
      "stateMutability": "payable",
      "type": "function"
    }
  ],
  "bytecode": "0x60a06040523480156200001157600080fd5b5060405162003b6c38038062003b6c8339818101604052810190620000379190620001cc565b8080620000596200004d6200009660201b60201c565b6200009e60201b60201c565b8073ffffffffffffffffffffffffffffffffffffffff1660808173ffffffffffffffffffffffffffffffffffffffff1681525050505050620001fe565b600033905090565b60008060009054906101000a900473ffffffffffffffffffffffffffffffffffffffff169050816000806101000a81548173ffffffffffffffffffffffffffffffffffffffff021916908373ffffffffffffffffffffffffffffffffffffffff1602179055508173ffffffffffffffffffffffffffffffffffffffff168173ffffffffffffffffffffffffffffffffffffffff167f8be0079c531659141344cd1fd0a4f28419497f9722a3daafe3b4186f6b6457e060405160405180910390a35050565b600080fd5b600073ffffffffffffffffffffffffffffffffffffffff82169050919050565b6000620001948262000167565b9050919050565b620001a68162000187565b8114620001b257600080fd5b50565b600081519050620001c6816200019b565b92915050565b600060208284031215620001e557620001e462000162565b5b6000620001f584828501620001b5565b91505092915050565b6080516139216200024b600039600081816106c901528181610927015281816109e901528181610d4201528181611224015281816112d9015281816117930152611a8a01526139216000f3fe6080604052600436106101b65760003560e01c80638da5cb5b116100ec578063cbed8b9c1161008a578063df2a5b3b11610064578063df2a5b3b1461060f578063eb8d72b714610638578063f2fde38b14610661578063f5ecbdbc1461068a576101b6565b8063cbed8b9c1461058d578063d1deba1f146105b6578063d5d44d80146105d2576101b6565b8063a6c3d165116100c6578063a6c3d165146104e5578063b353aaa71461050e578063baf3292d14610539578063c446183414610562576101b6565b80638da5cb5b14610452578063950c8a741461047d5780639f38369a146104a8576101b6565b806342d65a8d11610159578063715018a611610133578063715018a6146103845780637533d7881461039b5780638ad8a539146103d85780638cfd8f5c14610415576101b6565b806342d65a8d146102f55780635b8c41e61461031e57806366ad5c8a1461035b576101b6565b806310ddb1371161019557806310ddb13714610236578063126648da1461025f5780633d8b38f61461027b5780633f1f4fa4146102b8576101b6565b80621d3567146101bb57806307e0db17146101e45780630df374831461020d575b600080fd5b3480156101c757600080fd5b506101e260048036038101906101dd9190612156565b6106c7565b005b3480156101f057600080fd5b5061020b600480360381019061020691906121fd565b61091d565b005b34801561021957600080fd5b50610234600480360381019061022f9190612260565b6109b3565b005b34801561024257600080fd5b5061025d600480360381019061025891906121fd565b6109df565b005b610279600480360381019061027491906122a0565b610a75565b005b34801561028757600080fd5b506102a2600480360381019061029d91906122e0565b610c4c565b6040516102af919061235b565b60405180910390f35b3480156102c457600080fd5b506102df60048036038101906102da91906121fd565b610d20565b6040516102ec9190612385565b60405180910390f35b34801561030157600080fd5b5061031c600480360381019061031791906122e0565b610d38565b005b34801561032a57600080fd5b50610345600480360381019061034091906124e1565b610dd4565b6040516103529190612569565b60405180910390f35b34801561036757600080fd5b50610382600480360381019061037d9190612156565b610e1c565b005b34801561039057600080fd5b50610399610f2d565b005b3480156103a757600080fd5b506103c260048036038101906103bd91906121fd565b610f41565b6040516103cf9190612603565b60405180910390f35b3480156103e457600080fd5b506103ff60048036038101906103fa9190612683565b610fe1565b60405161040c919061235b565b60405180910390f35b34801561042157600080fd5b5061043c600480360381019061043791906122a0565b611001565b6040516104499190612385565b60405180910390f35b34801561045e57600080fd5b50610467611026565b60405161047491906126bf565b60405180910390f35b34801561048957600080fd5b5061049261104f565b60405161049f91906126bf565b60405180910390f35b3480156104b457600080fd5b506104cf60048036038101906104ca91906121fd565b611075565b6040516104dc9190612603565b60405180910390f35b3480156104f157600080fd5b5061050c600480360381019061050791906122e0565b61118e565b005b34801561051a57600080fd5b50610523611222565b6040516105309190612739565b60405180910390f35b34801561054557600080fd5b50610560600480360381019061055b9190612683565b611246565b005b34801561056e57600080fd5b506105776112c9565b6040516105849190612385565b60405180910390f35b34801561059957600080fd5b506105b460048036038101906105af9190612754565b6112cf565b005b6105d060048036038101906105cb9190612156565b611371565b005b3480156105de57600080fd5b506105f960048036038101906105f49190612683565b6115b4565b60405161060691906127eb565b60405180910390f35b34801561061b57600080fd5b5061063660048036038101906106319190612806565b6115d5565b005b34801561064457600080fd5b5061065f600480360381019061065a91906122e0565b611699565b005b34801561066d57600080fd5b5061068860048036038101906106839190612683565b61170c565b005b34801561069657600080fd5b506106b160048036038101906106ac9190612859565b61178f565b6040516106be9190612603565b60405180910390f35b7f000000000000000000000000000000000000000000000000000000000000000073ffffffffffffffffffffffffffffffffffffffff16610706611840565b73ffffffffffffffffffffffffffffffffffffffff161461075c576040517f08c379a00000000000000000000000000000000000000000000000000000000081526004016107539061291d565b60405180910390fd5b6000600160008861ffff1661ffff16815260200190815260200160002080546107849061296c565b80601f01602080910402602001604051908101604052809291908181526020018280546107b09061296c565b80156107fd5780601f106107d2576101008083540402835291602001916107fd565b820191906000526020600020905b8154815290600101906020018083116107e057829003601f168201915b50505050509050805186869050148015610818575060008151115b80156108415750808051906020012086866040516108379291906129cd565b6040518091039020145b610880576040517f08c379a000000000000000000000000000000000000000000000000000000000815260040161087790612a58565b60405180910390fd5b6109148787878080601f016020809104026020016040519081016040528093929190818152602001838380828437600081840152601f19601f820116905080830192505050505050508686868080601f016020809104026020016040519081016040528093929190818152602001838380828437600081840152601f19601f82011690508083019250505050505050611848565b50505050505050565b610925611913565b7f000000000000000000000000000000000000000000000000000000000000000073ffffffffffffffffffffffffffffffffffffffff166307e0db17826040518263ffffffff1660e01b815260040161097e91906127eb565b600060405180830381600087803b15801561099857600080fd5b505af11580156109ac573d6000803e3d6000fd5b5050505050565b6109bb611913565b80600360008461ffff1661ffff168152602001908152602001600020819055505050565b6109e7611913565b7f000000000000000000000000000000000000000000000000000000000000000073ffffffffffffffffffffffffffffffffffffffff166310ddb137826040518263ffffffff1660e01b8152600401610a4091906127eb565b600060405180830381600087803b158015610a5a57600080fd5b505af1158015610a6e573d6000803e3d6000fd5b5050505050565b600760003373ffffffffffffffffffffffffffffffffffffffff1673ffffffffffffffffffffffffffffffffffffffff16815260200190815260200160002060009054906101000a900460ff16610b7a57600a600660003373ffffffffffffffffffffffffffffffffffffffff1673ffffffffffffffffffffffffffffffffffffffff16815260200190815260200160002060006101000a81548161ffff021916908361ffff1602179055506001600760003373ffffffffffffffffffffffffffffffffffffffff1673ffffffffffffffffffffffffffffffffffffffff16815260200190815260200160002060006101000a81548160ff0219169083151502179055505b60003382604051602001610b8f929190612a78565b604051602081830303815290604052905060008361ffff161115610bd057610bcb83823360006040518060200160405280600081525034611991565b610c47565b81600660003373ffffffffffffffffffffffffffffffffffffffff1673ffffffffffffffffffffffffffffffffffffffff16815260200190815260200160002060008282829054906101000a900461ffff16610c2c9190612ad0565b92506101000a81548161ffff021916908361ffff1602179055505b505050565b600080600160008661ffff1661ffff1681526020019081526020016000208054610c759061296c565b80601f0160208091040260200160405190810160405280929190818152602001828054610ca19061296c565b8015610cee5780601f10610cc357610100808354040283529160200191610cee565b820191906000526020600020905b815481529060010190602001808311610cd157829003601f168201915b505050505090508383604051610d059291906129cd565b60405180910390208180519060200120149150509392505050565b60036020528060005260406000206000915090505481565b610d40611913565b7f000000000000000000000000000000000000000000000000000000000000000073ffffffffffffffffffffffffffffffffffffffff166342d65a8d8484846040518463ffffffff1660e01b8152600401610d9d93929190612b33565b600060405180830381600087803b158015610db757600080fd5b505af1158015610dcb573d6000803e3d6000fd5b50505050505050565b60056020528260005260406000208280516020810182018051848252602083016020850120818352809550505050505060205280600052604060002060009250925050505481565b3073ffffffffffffffffffffffffffffffffffffffff16610e3b611840565b73ffffffffffffffffffffffffffffffffffffffff1614610e91576040517f08c379a0000000000000000000000000000000000000000000000000000000008152600401610e8890612bd7565b60405180910390fd5b610f258686868080601f016020809104026020016040519081016040528093929190818152602001838380828437600081840152601f19601f820116905080830192505050505050508585858080601f016020809104026020016040519081016040528093929190818152602001838380828437600081840152601f19601f82011690508083019250505050505050611b27565b505050505050565b610f35611913565b610f3f6000611cc5565b565b60016020528060005260406000206000915090508054610f609061296c565b80601f0160208091040260200160405190810160405280929190818152602001828054610f8c9061296c565b8015610fd95780601f10610fae57610100808354040283529160200191610fd9565b820191906000526020600020905b815481529060010190602001808311610fbc57829003601f168201915b505050505081565b60076020528060005260406000206000915054906101000a900460ff1681565b6002602052816000526040600020602052806000526040600020600091509150505481565b60008060009054906101000a900473ffffffffffffffffffffffffffffffffffffffff16905090565b600460009054906101000a900473ffffffffffffffffffffffffffffffffffffffff1681565b60606000600160008461ffff1661ffff168152602001908152602001600020805461109f9061296c565b80601f01602080910402602001604051908101604052809291908181526020018280546110cb9061296c565b80156111185780601f106110ed57610100808354040283529160200191611118565b820191906000526020600020905b8154815290600101906020018083116110fb57829003601f168201915b505050505090506000815103611163576040517f08c379a000000000000000000000000000000000000000000000000000000000815260040161115a90612c43565b60405180910390fd5b6111866000601483516111769190612c63565b83611d899092919063ffffffff16565b915050919050565b611196611913565b8181306040516020016111ab93929190612cdf565b604051602081830303815290604052600160008561ffff1661ffff16815260200190815260200160002090816111e19190612eab565b507f8c0400cfe2d1199b1a725c78960bcc2a344d869b80590d0f2bd005db15a572ce83838360405161121593929190612b33565b60405180910390a1505050565b7f000000000000000000000000000000000000000000000000000000000000000081565b61124e611913565b80600460006101000a81548173ffffffffffffffffffffffffffffffffffffffff021916908373ffffffffffffffffffffffffffffffffffffffff1602179055507f5db758e995a17ec1ad84bdef7e8c3293a0bd6179bcce400dff5d4c3d87db726b816040516112be91906126bf565b60405180910390a150565b61271081565b6112d7611913565b7f000000000000000000000000000000000000000000000000000000000000000073ffffffffffffffffffffffffffffffffffffffff1663cbed8b9c86868686866040518663ffffffff1660e01b8152600401611338959493929190612f7d565b600060405180830381600087803b15801561135257600080fd5b505af1158015611366573d6000803e3d6000fd5b505050505050505050565b6000600560008861ffff1661ffff168152602001908152602001600020868660405161139e9291906129cd565b908152602001604051809103902060008567ffffffffffffffff1667ffffffffffffffff1681526020019081526020016000205490506000801b8103611419576040517f08c379a00000000000000000000000000000000000000000000000000000000081526004016114109061303d565b60405180910390fd5b80838360405161142a9291906129cd565b604051809103902014611472576040517f08c379a0000000000000000000000000000000000000000000000000000000008152600401611469906130cf565b60405180910390fd5b6000801b600560008961ffff1661ffff16815260200190815260200160002087876040516114a19291906129cd565b908152602001604051809103902060008667ffffffffffffffff1667ffffffffffffffff1681526020019081526020016000208190555061156c8787878080601f016020809104026020016040519081016040528093929190818152602001838380828437600081840152601f19601f820116905080830192505050505050508686868080601f016020809104026020016040519081016040528093929190818152602001838380828437600081840152601f19601f82011690508083019250505050505050611b27565b7fc264d91f3adc5588250e1551f547752ca0cfa8f6b530d243b9f9f4cab10ea8e587878787856040516115a39594939291906130fe565b60405180910390a150505050505050565b60066020528060005260406000206000915054906101000a900461ffff1681565b6115dd611913565b60008111611620576040517f08c379a000000000000000000000000000000000000000000000000000000000815260040161161790613198565b60405180910390fd5b80600260008561ffff1661ffff16815260200190815260200160002060008461ffff1661ffff168152602001908152602001600020819055507f9d5c7c0b934da8fefa9c7760c98383778a12dfbfc0c3b3106518f43fb9508ac083838360405161168c939291906131b8565b60405180910390a1505050565b6116a1611913565b8181600160008661ffff1661ffff16815260200190815260200160002091826116cb9291906131fa565b507ffa41487ad5d6728f0b19276fa1eddc16558578f5109fc39d2dc33c3230470dab8383836040516116ff93929190612b33565b60405180910390a1505050565b611714611913565b600073ffffffffffffffffffffffffffffffffffffffff168173ffffffffffffffffffffffffffffffffffffffff1603611783576040517f08c379a000000000000000000000000000000000000000000000000000000000815260040161177a9061333c565b60405180910390fd5b61178c81611cc5565b50565b60607f000000000000000000000000000000000000000000000000000000000000000073ffffffffffffffffffffffffffffffffffffffff1663f5ecbdbc868630866040518563ffffffff1660e01b81526004016117f0949392919061335c565b600060405180830381865afa15801561180d573d6000803e3d6000fd5b505050506040513d6000823e3d601f19601f820116820180604052508101906118369190613411565b9050949350505050565b600033905090565b6000806118f45a60966366ad5c8a60e01b89898989604051602401611870949392919061345a565b604051602081830303815290604052907bffffffffffffffffffffffffffffffffffffffffffffffffffffffff19166020820180517bffffffffffffffffffffffffffffffffffffffffffffffffffffffff83818316178352505050503073ffffffffffffffffffffffffffffffffffffffff16611ea7909392919063ffffffff16565b915091508161190b5761190a8686868685611f3f565b5b505050505050565b61191b611840565b73ffffffffffffffffffffffffffffffffffffffff16611939611026565b73ffffffffffffffffffffffffffffffffffffffff161461198f576040517f08c379a0000000000000000000000000000000000000000000000000000000008152600401611986906134f9565b60405180910390fd5b565b6000600160008861ffff1661ffff16815260200190815260200160002080546119b99061296c565b80601f01602080910402602001604051908101604052809291908181526020018280546119e59061296c565b8015611a325780601f10611a0757610100808354040283529160200191611a32565b820191906000526020600020905b815481529060010190602001808311611a1557829003601f168201915b505050505090506000815103611a7d576040517f08c379a0000000000000000000000000000000000000000000000000000000008152600401611a749061358b565b60405180910390fd5b611a88878751611fed565b7f000000000000000000000000000000000000000000000000000000000000000073ffffffffffffffffffffffffffffffffffffffff1663c58031008389848a8a8a8a6040518863ffffffff1660e01b8152600401611aec969594939291906135cc565b6000604051808303818588803b158015611b0557600080fd5b505af1158015611b19573d6000803e3d6000fd5b505050505050505050505050565b60008084806020019051810190611b3e9190613683565b91509150600760003373ffffffffffffffffffffffffffffffffffffffff1673ffffffffffffffffffffffffffffffffffffffff16815260200190815260200160002060009054906101000a900460ff16611c4757600a600660003373ffffffffffffffffffffffffffffffffffffffff1673ffffffffffffffffffffffffffffffffffffffff16815260200190815260200160002060006101000a81548161ffff021916908361ffff1602179055506001600760003373ffffffffffffffffffffffffffffffffffffffff1673ffffffffffffffffffffffffffffffffffffffff16815260200190815260200160002060006101000a81548160ff0219169083151502179055505b80600660008473ffffffffffffffffffffffffffffffffffffffff1673ffffffffffffffffffffffffffffffffffffffff16815260200190815260200160002060008282829054906101000a900461ffff16611ca39190612ad0565b92506101000a81548161ffff021916908361ffff160217905550505050505050565b60008060009054906101000a900473ffffffffffffffffffffffffffffffffffffffff169050816000806101000a81548173ffffffffffffffffffffffffffffffffffffffff021916908373ffffffffffffffffffffffffffffffffffffffff1602179055508173ffffffffffffffffffffffffffffffffffffffff168173ffffffffffffffffffffffffffffffffffffffff167f8be0079c531659141344cd1fd0a4f28419497f9722a3daafe3b4186f6b6457e060405160405180910390a35050565b606081601f83611d9991906136c3565b1015611dda576040517f08c379a0000000000000000000000000000000000000000000000000000000008152600401611dd190613743565b60405180910390fd5b8183611de691906136c3565b84511015611e29576040517f08c379a0000000000000000000000000000000000000000000000000000000008152600401611e20906137af565b60405180910390fd5b6060821560008114611e4a5760405191506000825260208201604052611e9b565b6040519150601f8416801560200281840101858101878315602002848b0101015b81831015611e885780518352602083019250602081019050611e6b565b50868552601f19601f8301166040525050505b50809150509392505050565b6000606060008060008661ffff1667ffffffffffffffff811115611ece57611ecd6123b6565b5b6040519080825280601f01601f191660200182016040528015611f005781602001600182028036833780820191505090505b50905060008087516020890160008d8df191503d925086831115611f22578692505b828152826000602083013e81819450945050505094509492505050565b8180519060200120600560008761ffff1661ffff16815260200190815260200160002085604051611f709190613800565b908152602001604051809103902060008567ffffffffffffffff1667ffffffffffffffff168152602001908152602001600020819055507fe183f33de2837795525b4792ca4cd60535bd77c53b7e7030060bfcf5734d6b0c8585858585604051611fde959493929190613817565b60405180910390a15050505050565b6000600360008461ffff1661ffff1681526020019081526020016000205490506000810361201b5761271090505b8082111561205e576040517f08c379a0000000000000000000000000000000000000000000000000000000008152600401612055906138cb565b60405180910390fd5b505050565b6000604051905090565b600080fd5b600080fd5b600061ffff82169050919050565b61208e81612077565b811461209957600080fd5b50565b6000813590506120ab81612085565b92915050565b600080fd5b600080fd5b600080fd5b60008083601f8401126120d6576120d56120b1565b5b8235905067ffffffffffffffff8111156120f3576120f26120b6565b5b60208301915083600182028301111561210f5761210e6120bb565b5b9250929050565b600067ffffffffffffffff82169050919050565b61213381612116565b811461213e57600080fd5b50565b6000813590506121508161212a565b92915050565b600080600080600080608087890312156121735761217261206d565b5b600061218189828a0161209c565b965050602087013567ffffffffffffffff8111156121a2576121a1612072565b5b6121ae89828a016120c0565b955095505060406121c189828a01612141565b935050606087013567ffffffffffffffff8111156121e2576121e1612072565b5b6121ee89828a016120c0565b92509250509295509295509295565b6000602082840312156122135761221261206d565b5b60006122218482850161209c565b91505092915050565b6000819050919050565b61223d8161222a565b811461224857600080fd5b50565b60008135905061225a81612234565b92915050565b600080604083850312156122775761227661206d565b5b60006122858582860161209c565b92505060206122968582860161224b565b9150509250929050565b600080604083850312156122b7576122b661206d565b5b60006122c58582860161209c565b92505060206122d68582860161209c565b9150509250929050565b6000806000604084860312156122f9576122f861206d565b5b60006123078682870161209c565b935050602084013567ffffffffffffffff81111561232857612327612072565b5b612334868287016120c0565b92509250509250925092565b60008115159050919050565b61235581612340565b82525050565b6000602082019050612370600083018461234c565b92915050565b61237f8161222a565b82525050565b600060208201905061239a6000830184612376565b92915050565b600080fd5b6000601f19601f8301169050919050565b7f4e487b7100000000000000000000000000000000000000000000000000000000600052604160045260246000fd5b6123ee826123a5565b810181811067ffffffffffffffff8211171561240d5761240c6123b6565b5b80604052505050565b6000612420612063565b905061242c82826123e5565b919050565b600067ffffffffffffffff82111561244c5761244b6123b6565b5b612455826123a5565b9050602081019050919050565b82818337600083830152505050565b600061248461247f84612431565b612416565b9050828152602081018484840111156124a05761249f6123a0565b5b6124ab848285612462565b509392505050565b600082601f8301126124c8576124c76120b1565b5b81356124d8848260208601612471565b91505092915050565b6000806000606084860312156124fa576124f961206d565b5b60006125088682870161209c565b935050602084013567ffffffffffffffff81111561252957612528612072565b5b612535868287016124b3565b925050604061254686828701612141565b9150509250925092565b6000819050919050565b61256381612550565b82525050565b600060208201905061257e600083018461255a565b92915050565b600081519050919050565b600082825260208201905092915050565b60005b838110156125be5780820151818401526020810190506125a3565b60008484015250505050565b60006125d582612584565b6125df818561258f565b93506125ef8185602086016125a0565b6125f8816123a5565b840191505092915050565b6000602082019050818103600083015261261d81846125ca565b905092915050565b600073ffffffffffffffffffffffffffffffffffffffff82169050919050565b600061265082612625565b9050919050565b61266081612645565b811461266b57600080fd5b50565b60008135905061267d81612657565b92915050565b6000602082840312156126995761269861206d565b5b60006126a78482850161266e565b91505092915050565b6126b981612645565b82525050565b60006020820190506126d460008301846126b0565b92915050565b6000819050919050565b60006126ff6126fa6126f584612625565b6126da565b612625565b9050919050565b6000612711826126e4565b9050919050565b600061272382612706565b9050919050565b61273381612718565b82525050565b600060208201905061274e600083018461272a565b92915050565b6000806000806000608086880312156127705761276f61206d565b5b600061277e8882890161209c565b955050602061278f8882890161209c565b94505060406127a08882890161224b565b935050606086013567ffffffffffffffff8111156127c1576127c0612072565b5b6127cd888289016120c0565b92509250509295509295909350565b6127e581612077565b82525050565b600060208201905061280060008301846127dc565b92915050565b60008060006060848603121561281f5761281e61206d565b5b600061282d8682870161209c565b935050602061283e8682870161209c565b925050604061284f8682870161224b565b9150509250925092565b600080600080608085870312156128735761287261206d565b5b60006128818782880161209c565b94505060206128928782880161209c565b93505060406128a38782880161266e565b92505060606128b48782880161224b565b91505092959194509250565b600082825260208201905092915050565b7f4c7a4170703a20696e76616c696420656e64706f696e742063616c6c65720000600082015250565b6000612907601e836128c0565b9150612912826128d1565b602082019050919050565b60006020820190508181036000830152612936816128fa565b9050919050565b7f4e487b7100000000000000000000000000000000000000000000000000000000600052602260045260246000fd5b6000600282049050600182168061298457607f821691505b6020821081036129975761299661293d565b5b50919050565b600081905092915050565b60006129b4838561299d565b93506129c1838584612462565b82840190509392505050565b60006129da8284866129a8565b91508190509392505050565b7f4c7a4170703a20696e76616c696420736f757263652073656e64696e6720636f60008201527f6e74726163740000000000000000000000000000000000000000000000000000602082015250565b6000612a426026836128c0565b9150612a4d826129e6565b604082019050919050565b60006020820190508181036000830152612a7181612a35565b9050919050565b6000604082019050612a8d60008301856126b0565b612a9a60208301846127dc565b9392505050565b7f4e487b7100000000000000000000000000000000000000000000000000000000600052601160045260246000fd5b6000612adb82612077565b9150612ae683612077565b9250828203905061ffff811115612b0057612aff612aa1565b5b92915050565b6000612b12838561258f565b9350612b1f838584612462565b612b28836123a5565b840190509392505050565b6000604082019050612b4860008301866127dc565b8181036020830152612b5b818486612b06565b9050949350505050565b7f4e6f6e626c6f636b696e674c7a4170703a2063616c6c6572206d75737420626560008201527f204c7a4170700000000000000000000000000000000000000000000000000000602082015250565b6000612bc16026836128c0565b9150612bcc82612b65565b604082019050919050565b60006020820190508181036000830152612bf081612bb4565b9050919050565b7f4c7a4170703a206e6f20747275737465642070617468207265636f7264000000600082015250565b6000612c2d601d836128c0565b9150612c3882612bf7565b602082019050919050565b60006020820190508181036000830152612c5c81612c20565b9050919050565b6000612c6e8261222a565b9150612c798361222a565b9250828203905081811115612c9157612c90612aa1565b5b92915050565b60008160601b9050919050565b6000612caf82612c97565b9050919050565b6000612cc182612ca4565b9050919050565b612cd9612cd482612645565b612cb6565b82525050565b6000612cec8285876129a8565b9150612cf88284612cc8565b601482019150819050949350505050565b60008190508160005260206000209050919050565b60006020601f8301049050919050565b600082821b905092915050565b600060088302612d6b7fffffffffffffffffffffffffffffffffffffffffffffffffffffffffffffffff82612d2e565b612d758683612d2e565b95508019841693508086168417925050509392505050565b6000612da8612da3612d9e8461222a565b6126da565b61222a565b9050919050565b6000819050919050565b612dc283612d8d565b612dd6612dce82612daf565b848454612d3b565b825550505050565b600090565b612deb612dde565b612df6818484612db9565b505050565b5b81811015612e1a57612e0f600082612de3565b600181019050612dfc565b5050565b601f821115612e5f57612e3081612d09565b612e3984612d1e565b81016020851015612e48578190505b612e5c612e5485612d1e565b830182612dfb565b50505b505050565b600082821c905092915050565b6000612e8260001984600802612e64565b1980831691505092915050565b6000612e9b8383612e71565b9150826002028217905092915050565b612eb482612584565b67ffffffffffffffff811115612ecd57612ecc6123b6565b5b612ed7825461296c565b612ee2828285612e1e565b600060209050601f831160018114612f155760008415612f03578287015190505b612f0d8582612e8f565b865550612f75565b601f198416612f2386612d09565b60005b82811015612f4b57848901518255600182019150602085019450602081019050612f26565b86831015612f685784890151612f64601f891682612e71565b8355505b6001600288020188555050505b505050505050565b6000608082019050612f9260008301886127dc565b612f9f60208301876127dc565b612fac6040830186612376565b8181036060830152612fbf818486612b06565b90509695505050505050565b7f4e6f6e626c6f636b696e674c7a4170703a206e6f2073746f726564206d65737360008201527f6167650000000000000000000000000000000000000000000000000000000000602082015250565b60006130276023836128c0565b915061303282612fcb565b604082019050919050565b600060208201905081810360008301526130568161301a565b9050919050565b7f4e6f6e626c6f636b696e674c7a4170703a20696e76616c6964207061796c6f6160008201527f6400000000000000000000000000000000000000000000000000000000000000602082015250565b60006130b96021836128c0565b91506130c48261305d565b604082019050919050565b600060208201905081810360008301526130e8816130ac565b9050919050565b6130f881612116565b82525050565b600060808201905061311360008301886127dc565b8181036020830152613126818688612b06565b905061313560408301856130ef565b613142606083018461255a565b9695505050505050565b7f4c7a4170703a20696e76616c6964206d696e4761730000000000000000000000600082015250565b60006131826015836128c0565b915061318d8261314c565b602082019050919050565b600060208201905081810360008301526131b181613175565b9050919050565b60006060820190506131cd60008301866127dc565b6131da60208301856127dc565b6131e76040830184612376565b949350505050565b600082905092915050565b61320483836131ef565b67ffffffffffffffff81111561321d5761321c6123b6565b5b613227825461296c565b613232828285612e1e565b6000601f831160018114613261576000841561324f578287013590505b6132598582612e8f565b8655506132c1565b601f19841661326f86612d09565b60005b8281101561329757848901358255600182019150602085019450602081019050613272565b868310156132b457848901356132b0601f891682612e71565b8355505b6001600288020188555050505b50505050505050565b7f4f776e61626c653a206e6577206f776e657220697320746865207a65726f206160008201527f6464726573730000000000000000000000000000000000000000000000000000602082015250565b60006133266026836128c0565b9150613331826132ca565b604082019050919050565b6000602082019050818103600083015261335581613319565b9050919050565b600060808201905061337160008301876127dc565b61337e60208301866127dc565b61338b60408301856126b0565b6133986060830184612376565b95945050505050565b60006133b46133af84612431565b612416565b9050828152602081018484840111156133d0576133cf6123a0565b5b6133db8482856125a0565b509392505050565b600082601f8301126133f8576133f76120b1565b5b81516134088482602086016133a1565b91505092915050565b6000602082840312156134275761342661206d565b5b600082015167ffffffffffffffff81111561344557613444612072565b5b613451848285016133e3565b91505092915050565b600060808201905061346f60008301876127dc565b818103602083015261348181866125ca565b905061349060408301856130ef565b81810360608301526134a281846125ca565b905095945050505050565b7f4f776e61626c653a2063616c6c6572206973206e6f7420746865206f776e6572600082015250565b60006134e36020836128c0565b91506134ee826134ad565b602082019050919050565b60006020820190508181036000830152613512816134d6565b9050919050565b7f4c7a4170703a2064657374696e6174696f6e20636861696e206973206e6f742060008201527f61207472757374656420736f7572636500000000000000000000000000000000602082015250565b60006135756030836128c0565b915061358082613519565b604082019050919050565b600060208201905081810360008301526135a481613568565b9050919050565b60006135b682612625565b9050919050565b6135c6816135ab565b82525050565b600060c0820190506135e160008301896127dc565b81810360208301526135f381886125ca565b9050818103604083015261360781876125ca565b905061361660608301866135bd565b61362360808301856126b0565b81810360a083015261363581846125ca565b9050979650505050505050565b61364b816135ab565b811461365657600080fd5b50565b60008151905061366881613642565b92915050565b60008151905061367d81612085565b92915050565b6000806040838503121561369a5761369961206d565b5b60006136a885828601613659565b92505060206136b98582860161366e565b9150509250929050565b60006136ce8261222a565b91506136d98361222a565b92508282019050808211156136f1576136f0612aa1565b5b92915050565b7f736c6963655f6f766572666c6f77000000000000000000000000000000000000600082015250565b600061372d600e836128c0565b9150613738826136f7565b602082019050919050565b6000602082019050818103600083015261375c81613720565b9050919050565b7f736c6963655f6f75744f66426f756e6473000000000000000000000000000000600082015250565b60006137996011836128c0565b91506137a482613763565b602082019050919050565b600060208201905081810360008301526137c88161378c565b9050919050565b60006137da82612584565b6137e4818561299d565b93506137f48185602086016125a0565b80840191505092915050565b600061380c82846137cf565b915081905092915050565b600060a08201905061382c60008301886127dc565b818103602083015261383e81876125ca565b905061384d60408301866130ef565b818103606083015261385f81856125ca565b9050818103608083015261387381846125ca565b90509695505050505050565b7f4c7a4170703a207061796c6f61642073697a6520697320746f6f206c61726765600082015250565b60006138b56020836128c0565b91506138c08261387f565b602082019050919050565b600060208201905081810360008301526138e4816138a8565b905091905056fea26469706673582212202db32b8d8a19b3318c9abfc413ff5723343b609d82dc24a42db237ebf508a2ad64736f6c63430008120033",
  "linkReferences": {},
  "deployedLinkReferences": {}
}