{
  "_format": "hh-sol-artifact-1",
  "contractName": "OmnichainCredit",
  "sourceName": "contracts/OmnichainCredit.sol",
  "abi": [
    {
      "inputs": [
        {
          "internalType": "address",
          "name": "_lzEndpoint",
          "type": "address"
        }
      ],
      "stateMutability": "nonpayable",
      "type": "constructor"
    },
    {
      "anonymous": false,
      "inputs": [
        {
          "indexed": false,
          "internalType": "uint16",
          "name": "_srcChainId",
          "type": "uint16"
        },
        {
          "indexed": false,
          "internalType": "bytes",
          "name": "_srcAddress",
          "type": "bytes"
        },
        {
          "indexed": false,
          "internalType": "uint64",
          "name": "_nonce",
          "type": "uint64"
        },
        {
          "indexed": false,
          "internalType": "bytes",
          "name": "_payload",
          "type": "bytes"
        },
        {
          "indexed": false,
          "internalType": "bytes",
          "name": "_reason",
          "type": "bytes"
        }
      ],
      "name": "MessageFailed",
      "type": "event"
    },
    {
      "anonymous": false,
      "inputs": [
        {
          "indexed": true,
          "internalType": "address",
          "name": "previousOwner",
          "type": "address"
        },
        {
          "indexed": true,
          "internalType": "address",
          "name": "newOwner",
          "type": "address"
        }
      ],
      "name": "OwnershipTransferred",
      "type": "event"
    },
    {
      "anonymous": false,
      "inputs": [
        {
          "indexed": false,
          "internalType": "uint16",
          "name": "_srcChainId",
          "type": "uint16"
        },
        {
          "indexed": false,
          "internalType": "bytes",
          "name": "_srcAddress",
          "type": "bytes"
        },
        {
          "indexed": false,
          "internalType": "uint64",
          "name": "_nonce",
          "type": "uint64"
        },
        {
          "indexed": false,
          "internalType": "bytes32",
          "name": "_payloadHash",
          "type": "bytes32"
        }
      ],
      "name": "RetryMessageSuccess",
      "type": "event"
    },
    {
      "anonymous": false,
      "inputs": [
        {
          "indexed": false,
          "internalType": "uint16",
          "name": "_dstChainId",
          "type": "uint16"
        },
        {
          "indexed": false,
          "internalType": "uint16",
          "name": "_type",
          "type": "uint16"
        },
        {
          "indexed": false,
          "internalType": "uint256",
          "name": "_minDstGas",
          "type": "uint256"
        }
      ],
      "name": "SetMinDstGas",
      "type": "event"
    },
    {
      "anonymous": false,
      "inputs": [
        {
          "indexed": false,
          "internalType": "address",
          "name": "precrime",
          "type": "address"
        }
      ],
      "name": "SetPrecrime",
      "type": "event"
    },
    {
      "anonymous": false,
      "inputs": [
        {
          "indexed": false,
          "internalType": "uint16",
          "name": "_remoteChainId",
          "type": "uint16"
        },
        {
          "indexed": false,
          "internalType": "bytes",
          "name": "_path",
          "type": "bytes"
        }
      ],
      "name": "SetTrustedRemote",
      "type": "event"
    },
    {
      "anonymous": false,
      "inputs": [
        {
          "indexed": false,
          "internalType": "uint16",
          "name": "_remoteChainId",
          "type": "uint16"
        },
        {
          "indexed": false,
          "internalType": "bytes",
          "name": "_remoteAddress",
          "type": "bytes"
        }
      ],
      "name": "SetTrustedRemoteAddress",
      "type": "event"
    },
    {
      "inputs": [],
      "name": "DEFAULT_PAYLOAD_SIZE_LIMIT",
      "outputs": [
        {
          "internalType": "uint256",
          "name": "",
          "type": "uint256"
        }
      ],
      "stateMutability": "view",
      "type": "function"
    },
    {
      "inputs": [
        {
          "internalType": "uint16",
          "name": "amount",
          "type": "uint16"
        }
      ],
      "name": "deposit",
      "outputs": [],
      "stateMutability": "payable",
      "type": "function"
    },
    {
      "inputs": [
        {
          "internalType": "address",
          "name": "",
          "type": "address"
        }
      ],
      "name": "depositted",
      "outputs": [
        {
          "internalType": "uint16",
          "name": "",
          "type": "uint16"
        }
      ],
      "stateMutability": "view",
      "type": "function"
    },
    {
      "inputs": [
        {
          "internalType": "uint16",
          "name": "",
          "type": "uint16"
        },
        {
          "internalType": "bytes",
          "name": "",
          "type": "bytes"
        },
        {
          "internalType": "uint64",
          "name": "",
          "type": "uint64"
        }
      ],
      "name": "failedMessages",
      "outputs": [
        {
          "internalType": "bytes32",
          "name": "",
          "type": "bytes32"
        }
      ],
      "stateMutability": "view",
      "type": "function"
    },
    {
      "inputs": [
        {
          "internalType": "uint16",
          "name": "_srcChainId",
          "type": "uint16"
        },
        {
          "internalType": "bytes",
          "name": "_srcAddress",
          "type": "bytes"
        }
      ],
      "name": "forceResumeReceive",
      "outputs": [],
      "stateMutability": "nonpayable",
      "type": "function"
    },
    {
      "inputs": [
        {
          "internalType": "uint16",
          "name": "_version",
          "type": "uint16"
        },
        {
          "internalType": "uint16",
          "name": "_chainId",
          "type": "uint16"
        },
        {
          "internalType": "address",
          "name": "",
          "type": "address"
        },
        {
          "internalType": "uint256",
          "name": "_configType",
          "type": "uint256"
        }
      ],
      "name": "getConfig",
      "outputs": [
        {
          "internalType": "bytes",
          "name": "",
          "type": "bytes"
        }
      ],
      "stateMutability": "view",
      "type": "function"
    },
    {
      "inputs": [
        {
          "internalType": "address",
          "name": "_user",
          "type": "address"
        }
      ],
      "name": "getCredit",
      "outputs": [
        {
          "internalType": "uint16",
          "name": "",
          "type": "uint16"
        }
      ],
      "stateMutability": "view",
      "type": "function"
    },
    {
      "inputs": [
        {
          "internalType": "uint16",
          "name": "_remoteChainId",
          "type": "uint16"
        }
      ],
      "name": "getTrustedRemoteAddress",
      "outputs": [
        {
          "internalType": "bytes",
          "name": "",
          "type": "bytes"
        }
      ],
      "stateMutability": "view",
      "type": "function"
    },
    {
      "inputs": [],
      "name": "initialCredit",
      "outputs": [
        {
          "internalType": "uint16",
          "name": "",
          "type": "uint16"
        }
      ],
      "stateMutability": "view",
      "type": "function"
    },
    {
      "inputs": [
        {
          "internalType": "uint16",
          "name": "_srcChainId",
          "type": "uint16"
        },
        {
          "internalType": "bytes",
          "name": "_srcAddress",
          "type": "bytes"
        }
      ],
      "name": "isTrustedRemote",
      "outputs": [
        {
          "internalType": "bool",
          "name": "",
          "type": "bool"
        }
      ],
      "stateMutability": "view",
      "type": "function"
    },
    {
      "inputs": [],
      "name": "lzEndpoint",
      "outputs": [
        {
          "internalType": "contract ILayerZeroEndpoint",
          "name": "",
          "type": "address"
        }
      ],
      "stateMutability": "view",
      "type": "function"
    },
    {
      "inputs": [
        {
          "internalType": "uint16",
          "name": "_srcChainId",
          "type": "uint16"
        },
        {
          "internalType": "bytes",
          "name": "_srcAddress",
          "type": "bytes"
        },
        {
          "internalType": "uint64",
          "name": "_nonce",
          "type": "uint64"
        },
        {
          "internalType": "bytes",
          "name": "_payload",
          "type": "bytes"
        }
      ],
      "name": "lzReceive",
      "outputs": [],
      "stateMutability": "nonpayable",
      "type": "function"
    },
    {
      "inputs": [
        {
          "internalType": "uint16",
          "name": "",
          "type": "uint16"
        },
        {
          "internalType": "uint16",
          "name": "",
          "type": "uint16"
        }
      ],
      "name": "minDstGasLookup",
      "outputs": [
        {
          "internalType": "uint256",
          "name": "",
          "type": "uint256"
        }
      ],
      "stateMutability": "view",
      "type": "function"
    },
    {
      "inputs": [
        {
          "internalType": "uint16",
          "name": "_srcChainId",
          "type": "uint16"
        },
        {
          "internalType": "bytes",
          "name": "_srcAddress",
          "type": "bytes"
        },
        {
          "internalType": "uint64",
          "name": "_nonce",
          "type": "uint64"
        },
        {
          "internalType": "bytes",
          "name": "_payload",
          "type": "bytes"
        }
      ],
      "name": "nonblockingLzReceive",
      "outputs": [],
      "stateMutability": "nonpayable",
      "type": "function"
    },
    {
      "inputs": [],
      "name": "owner",
      "outputs": [
        {
          "internalType": "address",
          "name": "",
          "type": "address"
        }
      ],
      "stateMutability": "view",
      "type": "function"
    },
    {
      "inputs": [
        {
          "internalType": "uint16",
          "name": "",
          "type": "uint16"
        }
      ],
      "name": "payloadSizeLimitLookup",
      "outputs": [
        {
          "internalType": "uint256",
          "name": "",
          "type": "uint256"
        }
      ],
      "stateMutability": "view",
      "type": "function"
    },
    {
      "inputs": [],
      "name": "precrime",
      "outputs": [
        {
          "internalType": "address",
          "name": "",
          "type": "address"
        }
      ],
      "stateMutability": "view",
      "type": "function"
    },
    {
      "inputs": [],
      "name": "renounceOwnership",
      "outputs": [],
      "stateMutability": "nonpayable",
      "type": "function"
    },
    {
      "inputs": [
        {
          "internalType": "uint16",
          "name": "_srcChainId",
          "type": "uint16"
        },
        {
          "internalType": "bytes",
          "name": "_srcAddress",
          "type": "bytes"
        },
        {
          "internalType": "uint64",
          "name": "_nonce",
          "type": "uint64"
        },
        {
          "internalType": "bytes",
          "name": "_payload",
          "type": "bytes"
        }
      ],
      "name": "retryMessage",
      "outputs": [],
      "stateMutability": "payable",
      "type": "function"
    },
    {
      "inputs": [
        {
          "internalType": "uint16",
          "name": "_version",
          "type": "uint16"
        },
        {
          "internalType": "uint16",
          "name": "_chainId",
          "type": "uint16"
        },
        {
          "internalType": "uint256",
          "name": "_configType",
          "type": "uint256"
        },
        {
          "internalType": "bytes",
          "name": "_config",
          "type": "bytes"
        }
      ],
      "name": "setConfig",
      "outputs": [],
      "stateMutability": "nonpayable",
      "type": "function"
    },
    {
      "inputs": [
        {
          "internalType": "uint16",
          "name": "_dstChainId",
          "type": "uint16"
        },
        {
          "internalType": "uint16",
          "name": "_packetType",
          "type": "uint16"
        },
        {
          "internalType": "uint256",
          "name": "_minGas",
          "type": "uint256"
        }
      ],
      "name": "setMinDstGas",
      "outputs": [],
      "stateMutability": "nonpayable",
      "type": "function"
    },
    {
      "inputs": [
        {
          "internalType": "uint16",
          "name": "_dstChainId",
          "type": "uint16"
        },
        {
          "internalType": "uint256",
          "name": "_size",
          "type": "uint256"
        }
      ],
      "name": "setPayloadSizeLimit",
      "outputs": [],
      "stateMutability": "nonpayable",
      "type": "function"
    },
    {
      "inputs": [
        {
          "internalType": "address",
          "name": "_precrime",
          "type": "address"
        }
      ],
      "name": "setPrecrime",
      "outputs": [],
      "stateMutability": "nonpayable",
      "type": "function"
    },
    {
      "inputs": [
        {
          "internalType": "uint16",
          "name": "_version",
          "type": "uint16"
        }
      ],
      "name": "setReceiveVersion",
      "outputs": [],
      "stateMutability": "nonpayable",
      "type": "function"
    },
    {
      "inputs": [
        {
          "internalType": "uint16",
          "name": "_version",
          "type": "uint16"
        }
      ],
      "name": "setSendVersion",
      "outputs": [],
      "stateMutability": "nonpayable",
      "type": "function"
    },
    {
      "inputs": [
        {
          "internalType": "uint16",
          "name": "_remoteChainId",
          "type": "uint16"
        },
        {
          "internalType": "bytes",
          "name": "_path",
          "type": "bytes"
        }
      ],
      "name": "setTrustedRemote",
      "outputs": [],
      "stateMutability": "nonpayable",
      "type": "function"
    },
    {
      "inputs": [
        {
          "internalType": "uint16",
          "name": "_remoteChainId",
          "type": "uint16"
        },
        {
          "internalType": "bytes",
          "name": "_remoteAddress",
          "type": "bytes"
        }
      ],
      "name": "setTrustedRemoteAddress",
      "outputs": [],
      "stateMutability": "nonpayable",
      "type": "function"
    },
    {
      "inputs": [
        {
          "internalType": "address",
          "name": "newOwner",
          "type": "address"
        }
      ],
      "name": "transferOwnership",
      "outputs": [],
      "stateMutability": "nonpayable",
      "type": "function"
    },
    {
      "inputs": [
        {
          "internalType": "uint16",
          "name": "",
          "type": "uint16"
        }
      ],
      "name": "trustedRemoteLookup",
      "outputs": [
        {
          "internalType": "bytes",
          "name": "",
          "type": "bytes"
        }
      ],
      "stateMutability": "view",
      "type": "function"
    },
    {
      "inputs": [
        {
          "internalType": "uint16",
          "name": "_dstChainId",
          "type": "uint16"
        },
        {
          "internalType": "uint16",
          "name": "amount",
          "type": "uint16"
        }
      ],
      "name": "useCredit",
      "outputs": [],
      "stateMutability": "payable",
      "type": "function"
    },
    {
      "inputs": [
        {
          "internalType": "address",
          "name": "",
          "type": "address"
        }
      ],
      "name": "used",
      "outputs": [
        {
          "internalType": "uint16",
          "name": "",
          "type": "uint16"
        }
      ],
      "stateMutability": "view",
      "type": "function"
    }
  ],
  "bytecode": "0x60a06040523480156200001157600080fd5b5060405162003d3838038062003d388339818101604052810190620000379190620001cc565b8080620000596200004d6200009660201b60201c565b6200009e60201b60201c565b8073ffffffffffffffffffffffffffffffffffffffff1660808173ffffffffffffffffffffffffffffffffffffffff1681525050505050620001fe565b600033905090565b60008060009054906101000a900473ffffffffffffffffffffffffffffffffffffffff169050816000806101000a81548173ffffffffffffffffffffffffffffffffffffffff021916908373ffffffffffffffffffffffffffffffffffffffff1602179055508173ffffffffffffffffffffffffffffffffffffffff168173ffffffffffffffffffffffffffffffffffffffff167f8be0079c531659141344cd1fd0a4f28419497f9722a3daafe3b4186f6b6457e060405160405180910390a35050565b600080fd5b600073ffffffffffffffffffffffffffffffffffffffff82169050919050565b6000620001948262000167565b9050919050565b620001a68162000187565b8114620001b257600080fd5b50565b600081519050620001c6816200019b565b92915050565b600060208284031215620001e557620001e462000162565b5b6000620001f584828501620001b5565b91505092915050565b608051613aed6200024b6000396000818161076e015281816109cc01528181610a8e01528181610d80015281816112fd0152818161144c015281816118ea0152611be10152613aed6000f3fe6080604052600436106101d75760003560e01c80638da5cb5b11610102578063c9c0c77a11610095578063eb8d72b711610064578063eb8d72b7146106b2578063f2fde38b146106db578063f488d89314610704578063f5ecbdbc1461072f576101d7565b8063c9c0c77a14610628578063cbed8b9c14610644578063d1deba1f1461066d578063df2a5b3b14610689576101d7565b8063b353aaa7116100d1578063b353aaa71461056c578063baf3292d14610597578063c4461834146105c0578063c497da8d146105eb576101d7565b80638da5cb5b146104b0578063950c8a74146104db5780639f38369a14610506578063a6c3d16514610543576101d7565b80633f1f4fa41161017a57806366ad5c8a1161014957806366ad5c8a146103f6578063715018a61461041f5780637533d788146104365780638cfd8f5c14610473576101d7565b80633f1f4fa41461031657806342d65a8d1461035357806357344e6f1461037c5780635b8c41e6146103b9576101d7565b806310ddb137116101b657806310ddb13714610257578063126648da14610280578063206072da1461029c5780633d8b38f6146102d9576101d7565b80621d3567146101dc57806307e0db17146102055780630df374831461022e575b600080fd5b3480156101e857600080fd5b5061020360048036038101906101fe91906121fd565b61076c565b005b34801561021157600080fd5b5061022c600480360381019061022791906122a4565b6109c2565b005b34801561023a57600080fd5b5061025560048036038101906102509190612307565b610a58565b005b34801561026357600080fd5b5061027e600480360381019061027991906122a4565b610a84565b005b61029a60048036038101906102959190612347565b610b1a565b005b3480156102a857600080fd5b506102c360048036038101906102be91906123e5565b610c69565b6040516102d09190612421565b60405180910390f35b3480156102e557600080fd5b5061030060048036038101906102fb919061243c565b610c8a565b60405161030d91906124b7565b60405180910390f35b34801561032257600080fd5b5061033d600480360381019061033891906122a4565b610d5e565b60405161034a91906124e1565b60405180910390f35b34801561035f57600080fd5b5061037a6004803603810190610375919061243c565b610d76565b005b34801561038857600080fd5b506103a3600480360381019061039e91906123e5565b610e12565b6040516103b09190612421565b60405180910390f35b3480156103c557600080fd5b506103e060048036038101906103db919061263d565b610ecd565b6040516103ed91906126c5565b60405180910390f35b34801561040257600080fd5b5061041d600480360381019061041891906121fd565b610f15565b005b34801561042b57600080fd5b50610434611026565b005b34801561044257600080fd5b5061045d600480360381019061045891906122a4565b61103a565b60405161046a919061275f565b60405180910390f35b34801561047f57600080fd5b5061049a60048036038101906104959190612347565b6110da565b6040516104a791906124e1565b60405180910390f35b3480156104bc57600080fd5b506104c56110ff565b6040516104d29190612790565b60405180910390f35b3480156104e757600080fd5b506104f0611128565b6040516104fd9190612790565b60405180910390f35b34801561051257600080fd5b5061052d600480360381019061052891906122a4565b61114e565b60405161053a919061275f565b60405180910390f35b34801561054f57600080fd5b5061056a6004803603810190610565919061243c565b611267565b005b34801561057857600080fd5b506105816112fb565b60405161058e919061280a565b60405180910390f35b3480156105a357600080fd5b506105be60048036038101906105b991906123e5565b61131f565b005b3480156105cc57600080fd5b506105d56113a2565b6040516105e291906124e1565b60405180910390f35b3480156105f757600080fd5b50610612600480360381019061060d91906123e5565b6113a8565b60405161061f9190612421565b60405180910390f35b610642600480360381019061063d91906122a4565b6113c9565b005b34801561065057600080fd5b5061066b60048036038101906106669190612825565b611442565b005b610687600480360381019061068291906121fd565b6114e4565b005b34801561069557600080fd5b506106b060048036038101906106ab91906128ad565b611727565b005b3480156106be57600080fd5b506106d960048036038101906106d4919061243c565b6117eb565b005b3480156106e757600080fd5b5061070260048036038101906106fd91906123e5565b61185e565b005b34801561071057600080fd5b506107196118e1565b6040516107269190612421565b60405180910390f35b34801561073b57600080fd5b5061075660048036038101906107519190612900565b6118e6565b604051610763919061275f565b60405180910390f35b7f000000000000000000000000000000000000000000000000000000000000000073ffffffffffffffffffffffffffffffffffffffff166107ab611997565b73ffffffffffffffffffffffffffffffffffffffff1614610801576040517f08c379a00000000000000000000000000000000000000000000000000000000081526004016107f8906129c4565b60405180910390fd5b6000600160008861ffff1661ffff168152602001908152602001600020805461082990612a13565b80601f016020809104026020016040519081016040528092919081815260200182805461085590612a13565b80156108a25780601f10610877576101008083540402835291602001916108a2565b820191906000526020600020905b81548152906001019060200180831161088557829003601f168201915b505050505090508051868690501480156108bd575060008151115b80156108e65750808051906020012086866040516108dc929190612a74565b6040518091039020145b610925576040517f08c379a000000000000000000000000000000000000000000000000000000000815260040161091c90612aff565b60405180910390fd5b6109b98787878080601f016020809104026020016040519081016040528093929190818152602001838380828437600081840152601f19601f820116905080830192505050505050508686868080601f016020809104026020016040519081016040528093929190818152602001838380828437600081840152601f19601f8201169050808301925050505050505061199f565b50505050505050565b6109ca611a6a565b7f000000000000000000000000000000000000000000000000000000000000000073ffffffffffffffffffffffffffffffffffffffff166307e0db17826040518263ffffffff1660e01b8152600401610a239190612421565b600060405180830381600087803b158015610a3d57600080fd5b505af1158015610a51573d6000803e3d6000fd5b5050505050565b610a60611a6a565b80600360008461ffff1661ffff168152602001908152602001600020819055505050565b610a8c611a6a565b7f000000000000000000000000000000000000000000000000000000000000000073ffffffffffffffffffffffffffffffffffffffff166310ddb137826040518263ffffffff1660e01b8152600401610ae59190612421565b600060405180830381600087803b158015610aff57600080fd5b505af1158015610b13573d6000803e3d6000fd5b5050505050565b60008261ffff161115610b9957600060019050600062055730905060008282604051602001610b4a929190612b76565b604051602081830303815290604052905060003385604051602001610b70929190612ba2565b6040516020818303038152906040529050610b9086823360008634611ae8565b50505050610c65565b6000610ba433610e12565b905060008161ffff1611610bed576040517f08c379a0000000000000000000000000000000000000000000000000000000008152600401610be490612c17565b60405180910390fd5b81600660003373ffffffffffffffffffffffffffffffffffffffff1673ffffffffffffffffffffffffffffffffffffffff16815260200190815260200160002060008282829054906101000a900461ffff16610c499190612c66565b92506101000a81548161ffff021916908361ffff160217905550505b5050565b60076020528060005260406000206000915054906101000a900461ffff1681565b600080600160008661ffff1661ffff1681526020019081526020016000208054610cb390612a13565b80601f0160208091040260200160405190810160405280929190818152602001828054610cdf90612a13565b8015610d2c5780601f10610d0157610100808354040283529160200191610d2c565b820191906000526020600020905b815481529060010190602001808311610d0f57829003601f168201915b505050505090508383604051610d43929190612a74565b60405180910390208180519060200120149150509392505050565b60036020528060005260406000206000915090505481565b610d7e611a6a565b7f000000000000000000000000000000000000000000000000000000000000000073ffffffffffffffffffffffffffffffffffffffff166342d65a8d8484846040518463ffffffff1660e01b8152600401610ddb93929190612cc9565b600060405180830381600087803b158015610df557600080fd5b505af1158015610e09573d6000803e3d6000fd5b50505050505050565b6000600660008373ffffffffffffffffffffffffffffffffffffffff1673ffffffffffffffffffffffffffffffffffffffff16815260200190815260200160002060009054906101000a900461ffff16600760008473ffffffffffffffffffffffffffffffffffffffff1673ffffffffffffffffffffffffffffffffffffffff16815260200190815260200160002060009054906101000a900461ffff16600a610ebc9190612c66565b610ec69190612cfb565b9050919050565b60056020528260005260406000208280516020810182018051848252602083016020850120818352809550505050505060205280600052604060002060009250925050505481565b3073ffffffffffffffffffffffffffffffffffffffff16610f34611997565b73ffffffffffffffffffffffffffffffffffffffff1614610f8a576040517f08c379a0000000000000000000000000000000000000000000000000000000008152600401610f8190612da3565b60405180910390fd5b61101e8686868080601f016020809104026020016040519081016040528093929190818152602001838380828437600081840152601f19601f820116905080830192505050505050508585858080601f016020809104026020016040519081016040528093929190818152602001838380828437600081840152601f19601f82011690508083019250505050505050611c7e565b505050505050565b61102e611a6a565b6110386000611d6c565b565b6001602052806000526040600020600091509050805461105990612a13565b80601f016020809104026020016040519081016040528092919081815260200182805461108590612a13565b80156110d25780601f106110a7576101008083540402835291602001916110d2565b820191906000526020600020905b8154815290600101906020018083116110b557829003601f168201915b505050505081565b6002602052816000526040600020602052806000526040600020600091509150505481565b60008060009054906101000a900473ffffffffffffffffffffffffffffffffffffffff16905090565b600460009054906101000a900473ffffffffffffffffffffffffffffffffffffffff1681565b60606000600160008461ffff1661ffff168152602001908152602001600020805461117890612a13565b80601f01602080910402602001604051908101604052809291908181526020018280546111a490612a13565b80156111f15780601f106111c6576101008083540402835291602001916111f1565b820191906000526020600020905b8154815290600101906020018083116111d457829003601f168201915b50505050509050600081510361123c576040517f08c379a000000000000000000000000000000000000000000000000000000000815260040161123390612e0f565b60405180910390fd5b61125f60006014835161124f9190612e2f565b83611e309092919063ffffffff16565b915050919050565b61126f611a6a565b81813060405160200161128493929190612eab565b604051602081830303815290604052600160008561ffff1661ffff16815260200190815260200160002090816112ba9190613077565b507f8c0400cfe2d1199b1a725c78960bcc2a344d869b80590d0f2bd005db15a572ce8383836040516112ee93929190612cc9565b60405180910390a1505050565b7f000000000000000000000000000000000000000000000000000000000000000081565b611327611a6a565b80600460006101000a81548173ffffffffffffffffffffffffffffffffffffffff021916908373ffffffffffffffffffffffffffffffffffffffff1602179055507f5db758e995a17ec1ad84bdef7e8c3293a0bd6179bcce400dff5d4c3d87db726b816040516113979190612790565b60405180910390a150565b61271081565b60066020528060005260406000206000915054906101000a900461ffff1681565b80600760003373ffffffffffffffffffffffffffffffffffffffff1673ffffffffffffffffffffffffffffffffffffffff16815260200190815260200160002060008282829054906101000a900461ffff166114259190612c66565b92506101000a81548161ffff021916908361ffff16021790555050565b61144a611a6a565b7f000000000000000000000000000000000000000000000000000000000000000073ffffffffffffffffffffffffffffffffffffffff1663cbed8b9c86868686866040518663ffffffff1660e01b81526004016114ab959493929190613149565b600060405180830381600087803b1580156114c557600080fd5b505af11580156114d9573d6000803e3d6000fd5b505050505050505050565b6000600560008861ffff1661ffff1681526020019081526020016000208686604051611511929190612a74565b908152602001604051809103902060008567ffffffffffffffff1667ffffffffffffffff1681526020019081526020016000205490506000801b810361158c576040517f08c379a000000000000000000000000000000000000000000000000000000000815260040161158390613209565b60405180910390fd5b80838360405161159d929190612a74565b6040518091039020146115e5576040517f08c379a00000000000000000000000000000000000000000000000000000000081526004016115dc9061329b565b60405180910390fd5b6000801b600560008961ffff1661ffff1681526020019081526020016000208787604051611614929190612a74565b908152602001604051809103902060008667ffffffffffffffff1667ffffffffffffffff168152602001908152602001600020819055506116df8787878080601f016020809104026020016040519081016040528093929190818152602001838380828437600081840152601f19601f820116905080830192505050505050508686868080601f016020809104026020016040519081016040528093929190818152602001838380828437600081840152601f19601f82011690508083019250505050505050611c7e565b7fc264d91f3adc5588250e1551f547752ca0cfa8f6b530d243b9f9f4cab10ea8e587878787856040516117169594939291906132ca565b60405180910390a150505050505050565b61172f611a6a565b60008111611772576040517f08c379a000000000000000000000000000000000000000000000000000000000815260040161176990613364565b60405180910390fd5b80600260008561ffff1661ffff16815260200190815260200160002060008461ffff1661ffff168152602001908152602001600020819055507f9d5c7c0b934da8fefa9c7760c98383778a12dfbfc0c3b3106518f43fb9508ac08383836040516117de93929190613384565b60405180910390a1505050565b6117f3611a6a565b8181600160008661ffff1661ffff168152602001908152602001600020918261181d9291906133c6565b507ffa41487ad5d6728f0b19276fa1eddc16558578f5109fc39d2dc33c3230470dab83838360405161185193929190612cc9565b60405180910390a1505050565b611866611a6a565b600073ffffffffffffffffffffffffffffffffffffffff168173ffffffffffffffffffffffffffffffffffffffff16036118d5576040517f08c379a00000000000000000000000000000000000000000000000000000000081526004016118cc90613508565b60405180910390fd5b6118de81611d6c565b50565b600a81565b60607f000000000000000000000000000000000000000000000000000000000000000073ffffffffffffffffffffffffffffffffffffffff1663f5ecbdbc868630866040518563ffffffff1660e01b81526004016119479493929190613528565b600060405180830381865afa158015611964573d6000803e3d6000fd5b505050506040513d6000823e3d601f19601f8201168201806040525081019061198d91906135dd565b9050949350505050565b600033905090565b600080611a4b5a60966366ad5c8a60e01b898989896040516024016119c79493929190613626565b604051602081830303815290604052907bffffffffffffffffffffffffffffffffffffffffffffffffffffffff19166020820180517bffffffffffffffffffffffffffffffffffffffffffffffffffffffff83818316178352505050503073ffffffffffffffffffffffffffffffffffffffff16611f4e909392919063ffffffff16565b9150915081611a6257611a618686868685611fe6565b5b505050505050565b611a72611997565b73ffffffffffffffffffffffffffffffffffffffff16611a906110ff565b73ffffffffffffffffffffffffffffffffffffffff1614611ae6576040517f08c379a0000000000000000000000000000000000000000000000000000000008152600401611add906136c5565b60405180910390fd5b565b6000600160008861ffff1661ffff1681526020019081526020016000208054611b1090612a13565b80601f0160208091040260200160405190810160405280929190818152602001828054611b3c90612a13565b8015611b895780601f10611b5e57610100808354040283529160200191611b89565b820191906000526020600020905b815481529060010190602001808311611b6c57829003601f168201915b505050505090506000815103611bd4576040517f08c379a0000000000000000000000000000000000000000000000000000000008152600401611bcb90613757565b60405180910390fd5b611bdf878751612094565b7f000000000000000000000000000000000000000000000000000000000000000073ffffffffffffffffffffffffffffffffffffffff1663c58031008389848a8a8a8a6040518863ffffffff1660e01b8152600401611c4396959493929190613798565b6000604051808303818588803b158015611c5c57600080fd5b505af1158015611c70573d6000803e3d6000fd5b505050505050505050505050565b60008082806020019051810190611c95919061384f565b915091506000611ca483610e12565b905060008161ffff1611611ced576040517f08c379a0000000000000000000000000000000000000000000000000000000008152600401611ce490612c17565b60405180910390fd5b81600660008573ffffffffffffffffffffffffffffffffffffffff1673ffffffffffffffffffffffffffffffffffffffff16815260200190815260200160002060008282829054906101000a900461ffff16611d499190612c66565b92506101000a81548161ffff021916908361ffff16021790555050505050505050565b60008060009054906101000a900473ffffffffffffffffffffffffffffffffffffffff169050816000806101000a81548173ffffffffffffffffffffffffffffffffffffffff021916908373ffffffffffffffffffffffffffffffffffffffff1602179055508173ffffffffffffffffffffffffffffffffffffffff168173ffffffffffffffffffffffffffffffffffffffff167f8be0079c531659141344cd1fd0a4f28419497f9722a3daafe3b4186f6b6457e060405160405180910390a35050565b606081601f83611e40919061388f565b1015611e81576040517f08c379a0000000000000000000000000000000000000000000000000000000008152600401611e789061390f565b60405180910390fd5b8183611e8d919061388f565b84511015611ed0576040517f08c379a0000000000000000000000000000000000000000000000000000000008152600401611ec79061397b565b60405180910390fd5b6060821560008114611ef15760405191506000825260208201604052611f42565b6040519150601f8416801560200281840101858101878315602002848b0101015b81831015611f2f5780518352602083019250602081019050611f12565b50868552601f19601f8301166040525050505b50809150509392505050565b6000606060008060008661ffff1667ffffffffffffffff811115611f7557611f74612512565b5b6040519080825280601f01601f191660200182016040528015611fa75781602001600182028036833780820191505090505b50905060008087516020890160008d8df191503d925086831115611fc9578692505b828152826000602083013e81819450945050505094509492505050565b8180519060200120600560008761ffff1661ffff1681526020019081526020016000208560405161201791906139cc565b908152602001604051809103902060008567ffffffffffffffff1667ffffffffffffffff168152602001908152602001600020819055507fe183f33de2837795525b4792ca4cd60535bd77c53b7e7030060bfcf5734d6b0c85858585856040516120859594939291906139e3565b60405180910390a15050505050565b6000600360008461ffff1661ffff168152602001908152602001600020549050600081036120c25761271090505b80821115612105576040517f08c379a00000000000000000000000000000000000000000000000000000000081526004016120fc90613a97565b60405180910390fd5b505050565b6000604051905090565b600080fd5b600080fd5b600061ffff82169050919050565b6121358161211e565b811461214057600080fd5b50565b6000813590506121528161212c565b92915050565b600080fd5b600080fd5b600080fd5b60008083601f84011261217d5761217c612158565b5b8235905067ffffffffffffffff81111561219a5761219961215d565b5b6020830191508360018202830111156121b6576121b5612162565b5b9250929050565b600067ffffffffffffffff82169050919050565b6121da816121bd565b81146121e557600080fd5b50565b6000813590506121f7816121d1565b92915050565b6000806000806000806080878903121561221a57612219612114565b5b600061222889828a01612143565b965050602087013567ffffffffffffffff81111561224957612248612119565b5b61225589828a01612167565b9550955050604061226889828a016121e8565b935050606087013567ffffffffffffffff81111561228957612288612119565b5b61229589828a01612167565b92509250509295509295509295565b6000602082840312156122ba576122b9612114565b5b60006122c884828501612143565b91505092915050565b6000819050919050565b6122e4816122d1565b81146122ef57600080fd5b50565b600081359050612301816122db565b92915050565b6000806040838503121561231e5761231d612114565b5b600061232c85828601612143565b925050602061233d858286016122f2565b9150509250929050565b6000806040838503121561235e5761235d612114565b5b600061236c85828601612143565b925050602061237d85828601612143565b9150509250929050565b600073ffffffffffffffffffffffffffffffffffffffff82169050919050565b60006123b282612387565b9050919050565b6123c2816123a7565b81146123cd57600080fd5b50565b6000813590506123df816123b9565b92915050565b6000602082840312156123fb576123fa612114565b5b6000612409848285016123d0565b91505092915050565b61241b8161211e565b82525050565b60006020820190506124366000830184612412565b92915050565b60008060006040848603121561245557612454612114565b5b600061246386828701612143565b935050602084013567ffffffffffffffff81111561248457612483612119565b5b61249086828701612167565b92509250509250925092565b60008115159050919050565b6124b18161249c565b82525050565b60006020820190506124cc60008301846124a8565b92915050565b6124db816122d1565b82525050565b60006020820190506124f660008301846124d2565b92915050565b600080fd5b6000601f19601f8301169050919050565b7f4e487b7100000000000000000000000000000000000000000000000000000000600052604160045260246000fd5b61254a82612501565b810181811067ffffffffffffffff8211171561256957612568612512565b5b80604052505050565b600061257c61210a565b90506125888282612541565b919050565b600067ffffffffffffffff8211156125a8576125a7612512565b5b6125b182612501565b9050602081019050919050565b82818337600083830152505050565b60006125e06125db8461258d565b612572565b9050828152602081018484840111156125fc576125fb6124fc565b5b6126078482856125be565b509392505050565b600082601f83011261262457612623612158565b5b81356126348482602086016125cd565b91505092915050565b60008060006060848603121561265657612655612114565b5b600061266486828701612143565b935050602084013567ffffffffffffffff81111561268557612684612119565b5b6126918682870161260f565b92505060406126a2868287016121e8565b9150509250925092565b6000819050919050565b6126bf816126ac565b82525050565b60006020820190506126da60008301846126b6565b92915050565b600081519050919050565b600082825260208201905092915050565b60005b8381101561271a5780820151818401526020810190506126ff565b60008484015250505050565b6000612731826126e0565b61273b81856126eb565b935061274b8185602086016126fc565b61275481612501565b840191505092915050565b600060208201905081810360008301526127798184612726565b905092915050565b61278a816123a7565b82525050565b60006020820190506127a56000830184612781565b92915050565b6000819050919050565b60006127d06127cb6127c684612387565b6127ab565b612387565b9050919050565b60006127e2826127b5565b9050919050565b60006127f4826127d7565b9050919050565b612804816127e9565b82525050565b600060208201905061281f60008301846127fb565b92915050565b60008060008060006080868803121561284157612840612114565b5b600061284f88828901612143565b955050602061286088828901612143565b9450506040612871888289016122f2565b935050606086013567ffffffffffffffff81111561289257612891612119565b5b61289e88828901612167565b92509250509295509295909350565b6000806000606084860312156128c6576128c5612114565b5b60006128d486828701612143565b93505060206128e586828701612143565b92505060406128f6868287016122f2565b9150509250925092565b6000806000806080858703121561291a57612919612114565b5b600061292887828801612143565b945050602061293987828801612143565b935050604061294a878288016123d0565b925050606061295b878288016122f2565b91505092959194509250565b600082825260208201905092915050565b7f4c7a4170703a20696e76616c696420656e64706f696e742063616c6c65720000600082015250565b60006129ae601e83612967565b91506129b982612978565b602082019050919050565b600060208201905081810360008301526129dd816129a1565b9050919050565b7f4e487b7100000000000000000000000000000000000000000000000000000000600052602260045260246000fd5b60006002820490506001821680612a2b57607f821691505b602082108103612a3e57612a3d6129e4565b5b50919050565b600081905092915050565b6000612a5b8385612a44565b9350612a688385846125be565b82840190509392505050565b6000612a81828486612a4f565b91508190509392505050565b7f4c7a4170703a20696e76616c696420736f757263652073656e64696e6720636f60008201527f6e74726163740000000000000000000000000000000000000000000000000000602082015250565b6000612ae9602683612967565b9150612af482612a8d565b604082019050919050565b60006020820190508181036000830152612b1881612adc565b9050919050565b60008160f01b9050919050565b6000612b3782612b1f565b9050919050565b612b4f612b4a8261211e565b612b2c565b82525050565b6000819050919050565b612b70612b6b826122d1565b612b55565b82525050565b6000612b828285612b3e565b600282019150612b928284612b5f565b6020820191508190509392505050565b6000604082019050612bb76000830185612781565b612bc46020830184612412565b9392505050565b7f637265646974206973206e6f7420656e6f756768000000000000000000000000600082015250565b6000612c01601483612967565b9150612c0c82612bcb565b602082019050919050565b60006020820190508181036000830152612c3081612bf4565b9050919050565b7f4e487b7100000000000000000000000000000000000000000000000000000000600052601160045260246000fd5b6000612c718261211e565b9150612c7c8361211e565b9250828201905061ffff811115612c9657612c95612c37565b5b92915050565b6000612ca883856126eb565b9350612cb58385846125be565b612cbe83612501565b840190509392505050565b6000604082019050612cde6000830186612412565b8181036020830152612cf1818486612c9c565b9050949350505050565b6000612d068261211e565b9150612d118361211e565b9250828203905061ffff811115612d2b57612d2a612c37565b5b92915050565b7f4e6f6e626c6f636b696e674c7a4170703a2063616c6c6572206d75737420626560008201527f204c7a4170700000000000000000000000000000000000000000000000000000602082015250565b6000612d8d602683612967565b9150612d9882612d31565b604082019050919050565b60006020820190508181036000830152612dbc81612d80565b9050919050565b7f4c7a4170703a206e6f20747275737465642070617468207265636f7264000000600082015250565b6000612df9601d83612967565b9150612e0482612dc3565b602082019050919050565b60006020820190508181036000830152612e2881612dec565b9050919050565b6000612e3a826122d1565b9150612e45836122d1565b9250828203905081811115612e5d57612e5c612c37565b5b92915050565b60008160601b9050919050565b6000612e7b82612e63565b9050919050565b6000612e8d82612e70565b9050919050565b612ea5612ea0826123a7565b612e82565b82525050565b6000612eb8828587612a4f565b9150612ec48284612e94565b601482019150819050949350505050565b60008190508160005260206000209050919050565b60006020601f8301049050919050565b600082821b905092915050565b600060088302612f377fffffffffffffffffffffffffffffffffffffffffffffffffffffffffffffffff82612efa565b612f418683612efa565b95508019841693508086168417925050509392505050565b6000612f74612f6f612f6a846122d1565b6127ab565b6122d1565b9050919050565b6000819050919050565b612f8e83612f59565b612fa2612f9a82612f7b565b848454612f07565b825550505050565b600090565b612fb7612faa565b612fc2818484612f85565b505050565b5b81811015612fe657612fdb600082612faf565b600181019050612fc8565b5050565b601f82111561302b57612ffc81612ed5565b61300584612eea565b81016020851015613014578190505b61302861302085612eea565b830182612fc7565b50505b505050565b600082821c905092915050565b600061304e60001984600802613030565b1980831691505092915050565b6000613067838361303d565b9150826002028217905092915050565b613080826126e0565b67ffffffffffffffff81111561309957613098612512565b5b6130a38254612a13565b6130ae828285612fea565b600060209050601f8311600181146130e157600084156130cf578287015190505b6130d9858261305b565b865550613141565b601f1984166130ef86612ed5565b60005b82811015613117578489015182556001820191506020850194506020810190506130f2565b868310156131345784890151613130601f89168261303d565b8355505b6001600288020188555050505b505050505050565b600060808201905061315e6000830188612412565b61316b6020830187612412565b61317860408301866124d2565b818103606083015261318b818486612c9c565b90509695505050505050565b7f4e6f6e626c6f636b696e674c7a4170703a206e6f2073746f726564206d65737360008201527f6167650000000000000000000000000000000000000000000000000000000000602082015250565b60006131f3602383612967565b91506131fe82613197565b604082019050919050565b60006020820190508181036000830152613222816131e6565b9050919050565b7f4e6f6e626c6f636b696e674c7a4170703a20696e76616c6964207061796c6f6160008201527f6400000000000000000000000000000000000000000000000000000000000000602082015250565b6000613285602183612967565b915061329082613229565b604082019050919050565b600060208201905081810360008301526132b481613278565b9050919050565b6132c4816121bd565b82525050565b60006080820190506132df6000830188612412565b81810360208301526132f2818688612c9c565b905061330160408301856132bb565b61330e60608301846126b6565b9695505050505050565b7f4c7a4170703a20696e76616c6964206d696e4761730000000000000000000000600082015250565b600061334e601583612967565b915061335982613318565b602082019050919050565b6000602082019050818103600083015261337d81613341565b9050919050565b60006060820190506133996000830186612412565b6133a66020830185612412565b6133b360408301846124d2565b949350505050565b600082905092915050565b6133d083836133bb565b67ffffffffffffffff8111156133e9576133e8612512565b5b6133f38254612a13565b6133fe828285612fea565b6000601f83116001811461342d576000841561341b578287013590505b613425858261305b565b86555061348d565b601f19841661343b86612ed5565b60005b828110156134635784890135825560018201915060208501945060208101905061343e565b86831015613480578489013561347c601f89168261303d565b8355505b6001600288020188555050505b50505050505050565b7f4f776e61626c653a206e6577206f776e657220697320746865207a65726f206160008201527f6464726573730000000000000000000000000000000000000000000000000000602082015250565b60006134f2602683612967565b91506134fd82613496565b604082019050919050565b60006020820190508181036000830152613521816134e5565b9050919050565b600060808201905061353d6000830187612412565b61354a6020830186612412565b6135576040830185612781565b61356460608301846124d2565b95945050505050565b600061358061357b8461258d565b612572565b90508281526020810184848401111561359c5761359b6124fc565b5b6135a78482856126fc565b509392505050565b600082601f8301126135c4576135c3612158565b5b81516135d484826020860161356d565b91505092915050565b6000602082840312156135f3576135f2612114565b5b600082015167ffffffffffffffff81111561361157613610612119565b5b61361d848285016135af565b91505092915050565b600060808201905061363b6000830187612412565b818103602083015261364d8186612726565b905061365c60408301856132bb565b818103606083015261366e8184612726565b905095945050505050565b7f4f776e61626c653a2063616c6c6572206973206e6f7420746865206f776e6572600082015250565b60006136af602083612967565b91506136ba82613679565b602082019050919050565b600060208201905081810360008301526136de816136a2565b9050919050565b7f4c7a4170703a2064657374696e6174696f6e20636861696e206973206e6f742060008201527f61207472757374656420736f7572636500000000000000000000000000000000602082015250565b6000613741603083612967565b915061374c826136e5565b604082019050919050565b6000602082019050818103600083015261377081613734565b9050919050565b600061378282612387565b9050919050565b61379281613777565b82525050565b600060c0820190506137ad6000830189612412565b81810360208301526137bf8188612726565b905081810360408301526137d38187612726565b90506137e26060830186613789565b6137ef6080830185612781565b81810360a08301526138018184612726565b9050979650505050505050565b61381781613777565b811461382257600080fd5b50565b6000815190506138348161380e565b92915050565b6000815190506138498161212c565b92915050565b6000806040838503121561386657613865612114565b5b600061387485828601613825565b92505060206138858582860161383a565b9150509250929050565b600061389a826122d1565b91506138a5836122d1565b92508282019050808211156138bd576138bc612c37565b5b92915050565b7f736c6963655f6f766572666c6f77000000000000000000000000000000000000600082015250565b60006138f9600e83612967565b9150613904826138c3565b602082019050919050565b60006020820190508181036000830152613928816138ec565b9050919050565b7f736c6963655f6f75744f66426f756e6473000000000000000000000000000000600082015250565b6000613965601183612967565b91506139708261392f565b602082019050919050565b6000602082019050818103600083015261399481613958565b9050919050565b60006139a6826126e0565b6139b08185612a44565b93506139c08185602086016126fc565b80840191505092915050565b60006139d8828461399b565b915081905092915050565b600060a0820190506139f86000830188612412565b8181036020830152613a0a8187612726565b9050613a1960408301866132bb565b8181036060830152613a2b8185612726565b90508181036080830152613a3f8184612726565b90509695505050505050565b7f4c7a4170703a207061796c6f61642073697a6520697320746f6f206c61726765600082015250565b6000613a81602083612967565b9150613a8c82613a4b565b602082019050919050565b60006020820190508181036000830152613ab081613a74565b905091905056fea2646970667358221220fee269a50990b80274f5102130aeaacaae361768bca50e866749eb901096e78c64736f6c63430008120033",
  "linkReferences": {},
  "deployedLinkReferences": {}
}